{
  "transactions": [
    {
      "hash": "0xd19d34bd3faf1ea2436350e86c0a0fe2417c6394c7c5986dd67a42eb29a3d328",
      "transactionType": "CREATE",
      "contractName": "CrossChainStrat",
      "contractAddress": "0x72A98059Bb78E42e8DdFAd9Bee0a4dea5cBd6725",
      "function": null,
      "arguments": [
        "0x779877A7B0D9E8603169DdbD7836e478b4624789",
        "0xD0daae2231E9CB96b94C8512223533293C3693Bf"
      ],
      "transaction": {
        "type": "0x00",
        "from": "0xfabcc4b22ffea25d01ac23c5d225d7b27cb1b6b8",
        "gas": "0x785aa",
        "value": "0x0",
        "data": "0x608060405234801561001057600080fd5b506040516105d53803806105d583398101604081905261002f916100ec565b600080546001600160a01b038481166001600160a01b031992831681179093556001805491851691909216811790915560405163095ea7b360e01b81526004810191909152600019602482015263095ea7b3906044016020604051808303816000875af11580156100a4573d6000803e3d6000fd5b505050506040513d601f19601f820116820180604052508101906100c8919061011f565b505050610148565b80516001600160a01b03811681146100e757600080fd5b919050565b600080604083850312156100ff57600080fd5b610108836100d0565b9150610116602084016100d0565b90509250929050565b60006020828403121561013157600080fd5b8151801515811461014157600080fd5b9392505050565b61047e806101576000396000f3fe608060405234801561001057600080fd5b50600436106100415760003560e01c80631c4695f414610046578063570b31f014610075578063f887ea401461008a575b600080fd5b600054610059906001600160a01b031681565b6040516001600160a01b03909116815260200160405180910390f35b610088610083366004610215565b61009d565b005b600154610059906001600160a01b031681565b6040805160a081019091526001600160a01b03841660c08201526000908060e081016040516020818303038152906040528152602001846040516020016100e4919061033b565b60408051601f198184030181529190528152602001600060405190808252806020026020018201604052801561014057816020015b60408051808201909152600080825260208201528152602001906001900390816101195790505b508152600080546001600160a01b039081166020808501919091526040805191820181529281529282019290925260015490516396f4e9f960e01b815292935016906396f4e9f9906101989085908590600401610355565b6020604051808303816000875af11580156101b7573d6000803e3d6000fd5b505050506040513d601f19601f820116820180604052508101906101db919061042f565b5050505050565b634e487b7160e01b600052604160045260246000fd5b803567ffffffffffffffff8116811461021057600080fd5b919050565b60008060006060848603121561022a57600080fd5b83356001600160a01b038116811461024157600080fd5b9250602084013567ffffffffffffffff8082111561025e57600080fd5b818601915086601f83011261027257600080fd5b813581811115610284576102846101e2565b604051601f8201601f19908116603f011681019083821181831017156102ac576102ac6101e2565b816040528281528960208487010111156102c557600080fd5b8260208601602083013760006020848301015280965050505050506102ec604085016101f8565b90509250925092565b6000815180845260005b8181101561031b576020818501810151868301820152016102ff565b506000602082860101526020601f19601f83011685010191505092915050565b60208152600061034e60208301846102f5565b9392505050565b6000604067ffffffffffffffff8516835260208181850152845160a08386015261038260e08601826102f5565b905081860151603f198087840301606088015261039f83836102f5565b88860151888203830160808a01528051808352908601945060009350908501905b808410156103f257845180516001600160a01b03168352860151868301529385019360019390930192908601906103c0565b5060608901516001600160a01b031660a08901526080890151888203830160c08a0152955061042181876102f5565b9a9950505050505050505050565b60006020828403121561044157600080fd5b505191905056fea26469706673582212202ce4220e1679c855b99526040cfb32ec913cf649d4cca712b57b720d77b95a7d64736f6c63430008140033000000000000000000000000779877a7b0d9e8603169ddbd7836e478b4624789000000000000000000000000d0daae2231e9cb96b94c8512223533293c3693bf",
        "nonce": "0x11"
      },
      "additionalContracts": [],
      "isFixedGasLimit": false
    },
    {
      "hash": "0x0f8316739f78358667dbe3728b4a11375efc05e4beb67090c7eff96f324219f8",
      "transactionType": "CALL",
      "contractName": null,
      "contractAddress": "0x779877A7B0D9E8603169DdbD7836e478b4624789",
      "function": null,
      "arguments": null,
      "transaction": {
        "type": "0x00",
        "from": "0xfabcc4b22ffea25d01ac23c5d225d7b27cb1b6b8",
        "to": "0x779877a7b0d9e8603169ddbd7836e478b4624789",
        "gas": "0x1271d",
        "value": "0x0",
        "data": "0xa9059cbb00000000000000000000000072a98059bb78e42e8ddfad9bee0a4dea5cbd67250000000000000000000000000000000000000000000000000de0b6b3a7640000",
        "nonce": "0x12"
      },
      "additionalContracts": [],
      "isFixedGasLimit": false
    },
    {
      "hash": "0x8d381d5cdb791956682c97e737019d98b9d1e826e900c6b32b47161208cab535",
      "transactionType": "CALL",
      "contractName": "CrossChainStrat",
      "contractAddress": "0x72A98059Bb78E42e8DdFAd9Bee0a4dea5cBd6725",
      "function": "send(address,string,uint64)",
      "arguments": [
        "0x5728376DCB18A8F9A8A16B4f7843fE05DB9e3E5C",
        "Hi",
        "12532609583862916517 \u001b[2;49;39m[1.253e19]\u001b[0m"
      ],
      "transaction": {
        "type": "0x00",
        "from": "0xfabcc4b22ffea25d01ac23c5d225d7b27cb1b6b8",
        "to": "0x72a98059bb78e42e8ddfad9bee0a4dea5cbd6725",
        "gas": "0x2f154",
        "value": "0x0",
        "data": "0x570b31f00000000000000000000000005728376dcb18a8f9a8a16b4f7843fe05db9e3e5c0000000000000000000000000000000000000000000000000000000000000060000000000000000000000000000000000000000000000000adecc60412ce25a500000000000000000000000000000000000000000000000000000000000000024869000000000000000000000000000000000000000000000000000000000000",
        "nonce": "0x13"
      },
      "additionalContracts": [],
      "isFixedGasLimit": false
    }
  ],
  "receipts": [
    {
      "transactionHash": "0xd19d34bd3faf1ea2436350e86c0a0fe2417c6394c7c5986dd67a42eb29a3d328",
      "transactionIndex": "0x3a",
      "blockHash": "0x89318ffaf9a0c0e4b41501126e7dfb37fb1c34aa22a475aa60d2f9bf369e579f",
      "blockNumber": "0x4a134f",
      "from": "0xFaBcc4b22fFEa25D01AC23c5d225D7B27CB1B6B8",
      "to": null,
      "cumulativeGasUsed": "0x951dbc",
      "gasUsed": "0x5c9aa",
      "contractAddress": "0x72A98059Bb78E42e8DdFAd9Bee0a4dea5cBd6725",
      "logs": [
        {
          "address": "0x779877A7B0D9E8603169DdbD7836e478b4624789",
          "topics": [
            "0x8c5be1e5ebec7d5bd14f71427d1e84f3dd0314c0f7b2291e5b200ac8c7c3b925",
            "0x00000000000000000000000072a98059bb78e42e8ddfad9bee0a4dea5cbd6725",
            "0x000000000000000000000000d0daae2231e9cb96b94c8512223533293c3693bf"
          ],
          "data": "0xffffffffffffffffffffffffffffffffffffffffffffffffffffffffffffffff",
          "blockHash": "0x89318ffaf9a0c0e4b41501126e7dfb37fb1c34aa22a475aa60d2f9bf369e579f",
          "blockNumber": "0x4a134f",
          "transactionHash": "0xd19d34bd3faf1ea2436350e86c0a0fe2417c6394c7c5986dd67a42eb29a3d328",
          "transactionIndex": "0x3a",
          "logIndex": "0x1f",
          "removed": false
        }
      ],
      "status": "0x1",
      "logsBloom": "0x00040004000000000000000000000000000000000000000000000000000000000000000000000000000000000000000000000000000000000000000000200000000000000000000000000000000000000000000000000080000000000000000000000000000000000000004000000000000000000000000000000000000000000000000000000000000000000000800000000000000000000000000000000000020000000000000000000000000000000000000000000000000080000000000000000000000000000000000000000000000000000000000100000000000000000010000000000000000000004000040000000000000000000000000000000000",
      "type": "0x0",
      "effectiveGasPrice": "0x76fb655"
    },
    {
      "transactionHash": "0x0f8316739f78358667dbe3728b4a11375efc05e4beb67090c7eff96f324219f8",
      "transactionIndex": "0x2e",
      "blockHash": "0x4fb743e2b62c91b1bc03af650a80b4c3ca997db0c095f8740182f56522203c0b",
      "blockNumber": "0x4a1350",
      "from": "0xFaBcc4b22fFEa25D01AC23c5d225D7B27CB1B6B8",
      "to": "0x779877A7B0D9E8603169DdbD7836e478b4624789",
      "cumulativeGasUsed": "0x535d8f",
      "gasUsed": "0xc9ca",
      "contractAddress": null,
      "logs": [
        {
          "address": "0x779877A7B0D9E8603169DdbD7836e478b4624789",
          "topics": [
            "0xddf252ad1be2c89b69c2b068fc378daa952ba7f163c4a11628f55a4df523b3ef",
            "0x000000000000000000000000fabcc4b22ffea25d01ac23c5d225d7b27cb1b6b8",
            "0x00000000000000000000000072a98059bb78e42e8ddfad9bee0a4dea5cbd6725"
          ],
          "data": "0x0000000000000000000000000000000000000000000000000de0b6b3a7640000",
          "blockHash": "0x4fb743e2b62c91b1bc03af650a80b4c3ca997db0c095f8740182f56522203c0b",
          "blockNumber": "0x4a1350",
          "transactionHash": "0x0f8316739f78358667dbe3728b4a11375efc05e4beb67090c7eff96f324219f8",
          "transactionIndex": "0x2e",
          "logIndex": "0x16",
          "removed": false
        }
      ],
      "status": "0x1",
      "logsBloom": "0x00040004000000000000000000000000000000000000000000000000000000000000000000000000000000000000000000000000000100000000000000000000000000000000000000000008000000000000200000000000000000000000000000000000000000000000000000000000000000000000000000000010000000000000000000000000000000000000800000000000000000000000000000000000000000000000000000000000000000000000000000000000000080000000000000000002000000000000000000000000000000000000000100000000000000000000000000000000000000000000040000000000000004000000000000000000",
      "type": "0x0",
      "effectiveGasPrice": "0x76fb655"
    },
    {
      "transactionHash": "0x8d381d5cdb791956682c97e737019d98b9d1e826e900c6b32b47161208cab535",
      "transactionIndex": "0x30",
      "blockHash": "0x00230b5d79c699892f3cd9d5c6f8e7bc2cbb04eb55fc9d2fa443a191e460bfd1",
      "blockNumber": "0x4a1351",
      "from": "0xFaBcc4b22fFEa25D01AC23c5d225D7B27CB1B6B8",
      "to": "0x72A98059Bb78E42e8DdFAd9Bee0a4dea5cBd6725",
      "cumulativeGasUsed": "0x534893",
      "gasUsed": "0x22166",
      "contractAddress": null,
      "logs": [
        {
          "address": "0x779877A7B0D9E8603169DdbD7836e478b4624789",
          "topics": [
            "0xddf252ad1be2c89b69c2b068fc378daa952ba7f163c4a11628f55a4df523b3ef",
            "0x00000000000000000000000072a98059bb78e42e8ddfad9bee0a4dea5cbd6725",
            "0x00000000000000000000000023438be3256369316e53fd2ef1cd2bdfaf22f6ad"
          ],
          "data": "0x0000000000000000000000000000000000000000000000000111ed1f2b5c0bb1",
          "blockHash": "0x00230b5d79c699892f3cd9d5c6f8e7bc2cbb04eb55fc9d2fa443a191e460bfd1",
          "blockNumber": "0x4a1351",
          "transactionHash": "0x8d381d5cdb791956682c97e737019d98b9d1e826e900c6b32b47161208cab535",
          "transactionIndex": "0x30",
          "logIndex": "0x40",
          "removed": false
        },
        {
          "address": "0x779877A7B0D9E8603169DdbD7836e478b4624789",
          "topics": [
            "0x8c5be1e5ebec7d5bd14f71427d1e84f3dd0314c0f7b2291e5b200ac8c7c3b925",
            "0x00000000000000000000000072a98059bb78e42e8ddfad9bee0a4dea5cbd6725",
            "0x000000000000000000000000d0daae2231e9cb96b94c8512223533293c3693bf"
          ],
          "data": "0xfffffffffffffffffffffffffffffffffffffffffffffffffeee12e0d4a3f44e",
          "blockHash": "0x00230b5d79c699892f3cd9d5c6f8e7bc2cbb04eb55fc9d2fa443a191e460bfd1",
          "blockNumber": "0x4a1351",
          "transactionHash": "0x8d381d5cdb791956682c97e737019d98b9d1e826e900c6b32b47161208cab535",
          "transactionIndex": "0x30",
          "logIndex": "0x41",
          "removed": false
        },
        {
          "address": "0x23438BE3256369316e53FD2eF1Cd2BDFAF22f6AD",
          "topics": [
            "0xaffc45517195d6499808c643bd4a7b0ffeedf95bea5852840d7bfcf63f59e821"
          ],
          "data": "0x0000000000000000000000000000000000000000000000000000000000000020000000000000000000000000000000000000000000000000de41ba4fc9d91ad900000000000000000000000000000000000000000000000000000000000021d30000000000000000000000000000000000000000000000000111ed1f2b5c0bb100000000000000000000000072a98059bb78e42e8ddfad9bee0a4dea5cbd672500000000000000000000000000000000000000000000000000000000000000010000000000000000000000000000000000000000000000000000000000030d4000000000000000000000000000000000000000000000000000000000000000000000000000000000000000005728376dcb18a8f9a8a16b4f7843fe05db9e3e5c00000000000000000000000000000000000000000000000000000000000001800000000000000000000000000000000000000000000000000000000000000200000000000000000000000000779877a7b0d9e8603169ddbd7836e478b462478981ad77618ec7135ed5c415e5bbbc1b58ecc3189fa171f561c208d3a6a45213b200000000000000000000000000000000000000000000000000000000000000600000000000000000000000000000000000000000000000000000000000000020000000000000000000000000000000000000000000000000000000000000000248690000000000000000000000000000000000000000000000000000000000000000000000000000000000000000000000000000000000000000000000000000",
          "blockHash": "0x00230b5d79c699892f3cd9d5c6f8e7bc2cbb04eb55fc9d2fa443a191e460bfd1",
          "blockNumber": "0x4a1351",
          "transactionHash": "0x8d381d5cdb791956682c97e737019d98b9d1e826e900c6b32b47161208cab535",
          "transactionIndex": "0x30",
          "logIndex": "0x42",
          "removed": false
        }
      ],
      "status": "0x1",
      "logsBloom": "0x00040004000000000000000000000000000000000000000000000000000000000000800000000000000000000000000000000000000000000000000000220000000040000000000000000008000000000001000000000080000000000000000000000000000800000000004000000000000000000000000000000010000000000000000000000000000000000000800000002000000000000000000000000000020000000000000000000000000000000000000000000000000080000000000000000002000000000000000000000000000000000000000110000001000000000010000000000000000000004000040002000000000000000000000000000000",
      "type": "0x0",
      "effectiveGasPrice": "0x76fb655"
    }
  ],
  "libraries": [],
  "pending": [],
  "returns": {},
  "timestamp": 1702146280,
  "chain": 11155111,
  "multi": false,
  "commit": "1b26a96"
}